:020000040800F2
:100000003808002029020008531B00081F190008A7
:10001000511B000863040008D923000800000000F9
:10002000000000000000000000000000151D000896
:10003000ED04000800000000551B0008511E0008D8
:10004000430200084302000843020008430200087C
:10005000430200084302000843020008430200086C
:10006000430200084302000843020008430200085C
:100070006504000843020008430200084302000828
:10008000430200084302000843020008430200083C
:10009000430200084302000843020008430200082C
:1000A000430200084302000843020008430200081C
:1000B000430200084302000843020008430200080C
:1000C00043020008430200084302000843020008FC
:1000D000430200084302000843020008CD23000841
:1000E00043020008430200084302000843020008DC
:1000F00043020008430200084302000843020008CC
:1001000043020008430200084302000843020008BB
:1001100043020008430200084302000843020008AB
:10012000430200084302000843020008430200089B
:10013000430200084302000843020008430200088B
:10014000430200084302000843020008430200087B
:10015000430200084302000843020008430200086B
:10016000430200084302000843020008430200085B
:100170004302000843020008430200080000000098
:10018000430200084302000800F002F800F03CF8C7
:100190000AA090E8000C82448344AAF10107DA45E2
:1001A00001D100F031F8AFF2090EBAE80F0013F0F8
:1001B000010F18BFFB1A43F0010318473825000050
:1001C00058250000103A24BF78C878C1FAD85207E1
:1001D00024BF30C830C144BF04680C6070470000C1
:1001E0000023002400250026103A28BF78C1FBD840
:1001F000520728BF30C148BF0B6070471FB502F0DF
:1002000063FA1FBD10B510BD00F0F1F81146FFF7FD
:10021000F5FF02F0F3F800F00FF903B4FFF7F2FF77
:1002200003BC00F017F9000009488047094800475F
:10023000FEE7FEE7FEE7FEE7FEE7FEE7FEE7FEE796
:10024000FEE7FEE704480549054A064B70470000F3
:10025000E91E000889010008380200203808002043
:10026000380400203804002053EA020C00F06980B2
:100270002DE9F04B4FF00006002B1FBFB3FA83F5BA
:1002800003FA05F424FA05F65E4012BF1643B2FAEB
:1002900082F502FA05F4C5F120051EBF22FA05FC1D
:1002A00044EA0C04203556EA044C4FEA144418BFC3
:1002B000641C4FF000084FF00009904271EB030CF2
:1002C00039D3002919BFB1FA81F701FA07F6B0FA5C
:1002D00080F700FA07F6C7F120071EBF20FA07FCD7
:1002E00046EA0C062037B6FBF4FCA7EB0507103FE7
:1002F00007F01F0BCBF120060CFA0BFB2CFA06F6CD
:1003000044BFB3460026202FA4BF5E464FF0000B2B
:100310005BEA060C08BF4FF0010B19EB0B09ABFBB6
:10032000027C48EB0608C01B06FB02CC0BFB03CC8F
:1003300071EB0C01C1E70B46024641464846BDE859
:10034000F08B13B54FF000004FF00001AFF30080C9
:10035000BDE81C4070474FF000020429C0F0128035
:1003600010F0030C00F01B80CCF1040CBCF1020F68
:1003700018BF00F8012BA8BF20F8022BA1EB0C013D
:1003800000F00DB85FEAC17C24BF00F8012B00F833
:10039000012B48BF00F8012B70474FF0000200B559
:1003A000134694469646203922BFA0E80C50A0E898
:1003B0000C50B1F12001BFF4F7AF090728BFA0E846
:1003C0000C5048BF0CC05DF804EB890028BF40F812
:1003D000042B08BF704748BF20F8022B11F0804F54
:1003E00018BF00F8012B704770477047704775467B
:1003F00000F02CF8AE4605006946534620F0070091
:10040000854618B020B5FFF71DFFBDE820404FF02E
:1004100000064FF000074FF000084FF0000B21F0EE
:100420000701AC46ACE8C009ACE8C009ACE8C009BB
:10043000ACE8C0098D46704710B50446AFF30080A4
:100440002046BDE81040FFF7E8BE000000487047B6
:10045000D801002001491820ABBEFEE726000200AB
:100460007047FEE7014800F09FB8000078010020C7
:1004700001681823CAB2103AB2FBF3F2054B6FF3CE
:100480000901032A9B5CC36500D9091D81650846E3
:1004900070470000D226000810B5014600208B6985
:1004A0008A6A4FF0C07453B1B3F5005F15D072B1D2
:1004B000012A0CD0022A0AD0032A09D104E01AB179
:1004C000012A06D0022A03D1C96AC90100D5012038
:1004D00010BDC96AA142FAD010BD002AF7D0012A86
:1004E000F2D0022AF3D0032AF3D010BD704772B6BF
:1004F000FEE72DE9F0410446876D00F0A7FA0646B5
:1005000094F835000025022806D08020606584F824
:1005100034500120BDE8F0812068016821F0160107
:1005200001602068416921F080014161206C08B9B7
:10053000A06C20B12068016821F0080101602068EA
:10054000016821F0010101600CE000F07FFA801BDE
:10055000052807D920206065032084F8350084F839
:100560003450D7E720680068C007EED194F85C10DB
:100570003F208840B860012084F8350084F834506A
:100580000020C7E790F83510022903D0802141658B
:1005900001207047052180F835100068016821F0BE
:1005A00001010160002070472DE9F84304464FF037
:1005B0000009CDF8009063484FF41651A56D00680E
:1005C000B0FBF1F72E6894F85C10082000FA01F1F6
:1005D00031420FD021680A6852070BD50A6822F011
:1005E00004020A6094F85C108840A860606D40F0D6
:1005F0000100606594F85C104FF0010808FA01F002
:10060000304208D021684969090604D5A860606DA8
:1006100040F00200606594F85C100420884030428D
:1006200008D021680968890704D5A860606D40F08A
:100630000400606594F85C1010208840304218D0A7
:1006400021680968090714D5A86020680168490372
:1006500004D50068000308D5A16C07E00168C9054E
:1006600003D4016821F008010160216C09B1204622
:10067000884794F85C1020208840304231D02168AF
:100680000968C9062DD5A86094F8350005282068AA
:10069000016806D0490347D5006800031DD4616C8A
:1006A0001CE021F0160101602068416921F0800101
:1006B0004161206C08B9A06C20B12068016821F06C
:1006C0000801016094F85C103F208840A86084F81D
:1006D000358084F83490216D1FE0E16B09B120462C
:1006E0008847606D00282BD0606DC00714D00520AE
:1006F00084F835002068016821F00101016000984C
:10070000401C0090B84203D820680068C007F6D1AA
:1007100084F8358084F83490E16C002910D001B061
:100720002046BDE8F04308470168C905D5D40168F3
:1007300021F01001016084F8358084F83490CCE712
:10074000BDE8F883140000202DE9F041044600F0D4
:100750007DF906465CB1022084F83500002584F856
:1007600034502068016821F0010101600DE0012092
:10077000BDE8F08100F06AF9801B052805D920202A
:100780006065032084F83500F2E720680068C00740
:10079000F0D12268116820480140D4E901031843D0
:1007A000D4E903363343184363691843A3691843F4
:1007B000E3691843236A18430843616A042903D193
:1007C000D4E90B1319430843106020684069666A36
:1007D00020F0070130460E43012704280CD1A06AFF
:1007E0000643E06A40B12046FFF756FE20B14020A4
:1007F000606584F83570BAE7206846612046FFF7E7
:1008000037FE94F85C203F2191408160656584F853
:1008100035700020ACE700003F8010F070B5044652
:1008200000F014F90546601C02D004480078044426
:1008300000F00CF9401BA042FAD370BD0800002064
:100840002DE9F84FDFF8BCA10022012503264FF067
:100850000F090AF1040BAAF1040E00BF0B6805FA98
:1008600002F42340A34270D10F7907F00307012F50
:1008700001D0022F16D187684FEA420806FA08FC19
:1008800027EA0C07D1F80CC00CFA08FC4CEA070C5C
:10089000C0F808C04768A7430C79C4F3001494401B
:1008A0003C4344600C79E443A4070AD0C4684FEA8F
:1008B000420C06FA0CF7BC438F6807FA0CF7274383
:1008C000C7600C7904F00304022C12D1D40800EBA9
:1008D000840CDCF820405707FF0E09FA07F824EAD9
:1008E0000804D1F8108008FA07F848EA0408CCF8A0
:1008F000208004684FEA420C06FA0CF7BC430F79DB
:1009000007F0030707FA0CF7274307604C6814F455
:10091000403F70D03C4C276847F4804727602468EC
:1009200022F0030704F480440094384C07EB040CD5
:10093000DCF8084897074FEA177809FA08F7BC432C
:10094000334FB84202D1002724E054E0314FB8427F
:1009500001D101271EE0304FB84201D1022719E032
:100960002E4FB84201D1032714E02D4FB84201D1D8
:1009700004270FE02B4FB84201D105270AE02A4F88
:10098000B84201D1062705E0284FB84201D1072718
:1009900000E0082707FA08F72743CCF80878DAF8C8
:1009A00000405746D1F804C09C435FEACC2C00D5E8
:1009B0001C433C60DBF800405F46D1F804C09C4318
:1009C0005FEA8C2C00D51C433C60DEF80040774683
:1009D000D1F804C09C435FEA8C3C00D51C433C60CA
:1009E000084F083F3C68D1F804C09C435FEACC3C08
:1009F00000D51C433C60521C102AFFF42FAFBDE809
:100A0000F88F0000083C01404438024000300140AB
:100A1000000002400004024000080240000C0240B6
:100A2000001002400014024000180240001C024066
:100A3000426921EA02030A4043EA024181617047A8
:100A40000AB1816170470904FBE700000148806832
:100A500070470000080000200248816802781144B5
:100A600081607047080000200B4810B5016841F410
:100A700000710160016841F480610160016841F426
:100A800080710160032000F06FF80F2000F006F87D
:100A900000F024F8002010BD003C024070B50D4D60
:100AA00004464FF47A712878B1FBF0F00A490968DE
:100AB000B1FBF0F000F00CFB48B9102C07D200227B
:100AC0002146501E00F030F800206C6070BD0120FF
:100AD00070BD000008000020140000200A4808B57E
:100AE000016841F480410160006800F4804000909A
:100AF0000548001F016841F080510160006800F066
:100B00008050009008BD000044380240002809DBF6
:100B100000F01F02012191404009800000F1E02017
:100B2000C0F8001170470000F0B40E4B1B680C4673
:100B3000C3F30223C3F10705042D00D90425191DB1
:100B4000072901D2002300E0DB1E012606FA05F189
:100B5000491E214099409E40761E16403143F0BC0C
:100B600001F03BBC0CED00E0064900F0070208680C
:100B70004FF6FF03184040EA0220034A1043086082
:100B8000704700000CED00E00000FA052DE9F04789
:100B90000E46050065D0DFF81481D8F80000F7B2E2
:100BA00000F00700B04207D288F80070D8F80000C3
:100BB00000F00700B04254D128683D4C810712D59F
:100BC000400703D5206840F4E050206028780007F3
:100BD00003D5206840F4604020602068A96820F0B8
:100BE000F000084320602878C0072DD0304968689D
:100BF0000839012812D0022813D0032811D009681F
:100C0000890700292DDA216821F0030101432160C1
:100C1000FFF71CFF814641F2883A0EE0096889031C
:100C2000EFE709688901ECE7FFF710FFA0EB090186
:100C3000514502D90320BDE8F0872068696800F0BB
:100C40000C00B0EB810FEFD1D8F80010404601F056
:100C50000701B14207D90770006800F00700B042F1
:100C600001D00120E7E72878400705D52068E9682A
:100C700020F4E050084320602878000706D520685B
:100C8000296920F4604040EAC100206000F038F893
:100C90002168084AC1F30311515CC8400649086045
:100CA00006480068FFF7FAFE0020C4E7003C024057
:100CB00008380240DA260008140000200C0000204A
:100CC0000448054900680968044AC1F38221515C5F
:100CD000C84070471400002008380240EA26000887
:100CE0000448054900680968044AC1F34231515C6F
:100CF000C84070471400002008380240EA26000867
:100D0000154810B5006810F00C02144813D01449AF
:100D1000042A0FD0082A0ED10F4C241F2268236802
:100D200002F03F025B0207D52068C0F38810A0FBE9
:100D3000010106E0084610BD2168C1F38811A1FB3E
:100D400000010023FFF790FA2168C1F30141491C1B
:100D50004900B0FBF1F010BD083802400024F40057
:100D600040787D012DE9F84F04006ED02078DFF83F
:100D70004C93C007A9F104054AD009F104000168A9
:100D8000C1F38101012908D00068C0F38100022865
:100D90000AD1D9F80000400206D52868800337D56B
:100DA00060680028E1D033E06068B0F5803F10D083
:100DB000B0F5A02F286810D020F480302860286873
:100DC00020F4802028606068A8B1FFF73FFE064647
:100DD0000DE0286840F48030F4E740F4802028607B
:100DE000F7E700BFFFF732FE801B642873D828683E
:100DF0008003F7D50CE0FFF729FE064605E000BFAB
:100E0000FFF724FE801B6428F0D828688003F7D4FD
:100E10002078DFF8AC8280074FF0000A3ED5A74863
:100E2000001D016811F00C0F08D00068C0F38100AC
:100E300002280BD1D9F80000400207D428688007A7
:100E400016D5E068012800D112E033E1E068B8B1BE
:100E50000120C8F80000FFF7F9FD064605E000BFD5
:100E6000FFF7F4FD801B0228C0D828688007F7D55B
:100E70002868216920F0F80040EAC10028600DE0F0
:100E8000C8F800A0FFF7E2FD064604E0FFF7DEFD2C
:100E9000801B02281FD828688007F7D42078000715
:100EA00022D5864F87486169703771B10121016091
:100EB000FFF7CCFD064604E0FFF7C8FD801B0228C3
:100EC00009D838688007F7D50EE0C0F800A0FFF712
:100ED000BDFD064605E082E0FFF7B8FD801B022855
:100EE0007DD838688007F7D42078400768D5DFF8C8
:100EF000CCB100270BF13C0BDBF80000C0000BD499
:100F0000DBF8001041F08051CBF80010DBF8000056
:100F1000012700F0805000906B4E3068C00510D45F
:100F2000306840F480703060FFF790FD009005E07D
:100F3000FFF78CFD0099401A022850D83068C00590
:100F4000F6D55E4EA0686C3601280FD005283068B3
:100F500010D020F001003060306820F004003060D4
:100F6000A068B8B1FFF772FD00900FE0306840F064
:100F70000100F4E740F004003060F7E7FFF766FD9A
:100F80000099411A41F28830814266D83068800762
:100F9000F4D50EE0FFF75AFD009007E0FFF756FD8D
:100FA0000099411A41F28830814256D83068800752
:100FB000F4D42FB1DBF8001021F08051CBF80010F1
:100FC000A069C8B33D49091D0968C1F3810102291F
:100FD0004AD00228504607D0C8F8600000E03CE044
:100FE000FFF734FD04463BE04746C8F86000FFF7D2
:100FF0002DFD064605E000BFFFF728FD801B0228F7
:101000002BD828688001F7D4D4E907010843A16AE6
:101010002E4A490802EB0141626A41EA8211084303
:1010200094F82C1040EA0161C9F8001001203866DC
:10103000FFF70CFD044606E03EE000BFFFF706FDAB
:10104000001B022809D828688001F7D534E000BFCA
:10105000FFF7FCFC001B022802D90320BDE8F88F33
:1010600028688001F4D427E00128F7D0D9F80000DF
:10107000E26900F4800191421CD1226A00F03F0134
:10108000914217D147F6C071626A0140B1EB821FED
:1010900010D1A26A4FF0FF3300F4403103EB52024B
:1010A000B1EB024F06D194F82C1000F07060B0EB59
:1010B000016F01D00120D1E70020CFE704380240C2
:1010C00000004742800E4742007000400000FFFFD2
:1010D00010B5401EB0F1807F01D3012010BD4FF04C
:1010E000E02460610F21601701F077F90020A06112
:1010F00007202061002010BD10B590F83C20012A87
:1011000022D0012280F83C20CA688C6822F4407208
:1011100022434C6822F4806222430C6822F400626D
:1011200022430C6922F4805222434C6922F400527B
:101130002243C969002322F480420A4301684A64B9
:1011400080F83C30002010BD022010BD70B590F832
:101150003C20012A32D0012480F83C40022280F851
:101160003D2003685A689D6822F070060A68324381
:101170005A60134B02689A4214D0B2F1804F11D0DA
:10118000104B9A420ED0104B9A420BD00F4B9A4202
:1011900008D00F4B9A4205D00E4B9A4202D00E4B0C
:1011A0009A4204D1496825F080031943916080F880
:1011B0003D40002180F83C10084670BD022070BD03
:1011C000000001400004004000080040000C004006
:1011D00000040140004001400018004010B586B0F6
:1011E000044614216846FFF7D8F82368184C0021FC
:1011F00018480222A34212D1036843F0010303609E
:10120000006800F0010005904FF470600090CDE997
:1012100001210120CDE9031069460F4813E00F4C6E
:10122000A34212D1036843F480730360006800F4A2
:1012300080700590E4200090CDE901210320CDE9E4
:10124000031069460648FFF7FBFA06B010BD000020
:10125000000001403038024000000240000401401C
:101260000020024070B5044690F83C0000260D4670
:1012700001280FD0012084F83C006AB1042A1DD057
:10128000082A2FD00C2A3FD00126002084F83C00E9
:10129000304670BD022070BD206800F0A3FE2068BB
:1012A000816941F0080181612068816921F00401B0
:1012B0008161206881692A69114311E0206800F08A
:1012C000C1FE2068816941F4006181612068816903
:1012D00021F480618161206881692A6941EA0221E3
:1012E0008161D2E7206800F0E3FE2068C16941F027
:1012F0000801C1612068C16921F00401C161206851
:10130000C1692A69114311E0206800F005FF2068D7
:10131000C16941F40061C1612068C16921F4806143
:10132000C1612068C1692A6941EA0221C161ACE753
:1013300010B5040003D094F83D0010B107E001207F
:1013400010BD002084F83C00204600F01FF8022069
:1013500084F83D00211D206800F0CEFD012084F8B6
:10136000460084F83E0084F83F0084F8400084F88A
:10137000410084F8420084F8430084F8440084F873
:10138000450084F83D00002010BD000008B50C4A5F
:1013900001680C48914207D1016841F001010160E8
:1013A000006800F0010009E0074A914207D1016896
:1013B00041F002010160006800F00200009008BDE9
:1013C00000000140443802400004014010B50446CA
:1013D000022249B104290ED0082913D094F8410003
:1013E000012816D0012010BD94F83E000128F9D143
:1013F00084F83E200FE094F83F000128F2D184F8F1
:101400003F2008E094F840000128EBD184F8402008
:1014100001E084F841200122206800F0D5FD164942
:101420002068164A884201D0904203D1436C43F4AD
:10143000004343642068884213D0B0F1804F10D03D
:101440000F4988420DD00F4988420AD00E49884280
:1014500007D0904205D00D49884202D00C498842FD
:1014600004D1816801F00701062903D0016841F029
:1014700001010160002010BD000001400004014096
:101480000004004000080040000C00400040014003
:10149000001800407047000000680449884204D1E9
:1014A00001220349034800F0F3B9704700480040A7
:1014B0000100002030010020F8B5016804460868EA
:1014C000CA684B6910F00F0F4FF0000559D003F0B8
:1014D000010602F49077374365D0C10705D0D105E6
:1014E00003D5616C41F001016164410705D5D9075D
:1014F00003D0616C41F002016164810705D5D90711
:1015000003D0616C41F004016164010707D502F06A
:101510002001314303D0616C41F008016164616CCA
:1015200000293AD0800604D5900602D5204600F066
:1015300049FE20684069616CC0F38010090700D43F
:1015400060B3204600F017FE20684069400621D5B0
:101550002068143050E8001F21F0400140E80012DC
:10156000002AF5D1E06BA8B172490165E06BFFF785
:1015700009F8002811D0E06B016D01B0BDE8F04022
:10158000084783060FD593060DD52046BDE8F840E1
:1015900000F018BE2046FFF77FFFF8BD2046FFF79A
:1015A0007BFF6564F8BD266B2023012E7ED1C60625
:1015B0007CD5D6067AD508684868009048694FF00F
:1015C000020640064DD5E26B106840684FF4807704
:1015D0000004000C3AD0A18D814237D9E085D06952
:1015E000B8422DD020680C3050E8001F21F48071E3
:1015F00040E80012002AF5D12068143050E8001F9E
:1016000021F0010140E80012002AF5D120681430D1
:1016100050E8001F21F0400140E80012002AF5D1F7
:1016200084F84230256320680C3050E8001F21F018
:10163000100140E80012002AF5D1E06BFEF759FFD7
:101640006663A08DE18D401A81B206E0A18D8142D2
:10165000A8D1D069B842A5D166632046FFF71AFF2A
:10166000F8BDA08DE18D401A81B2E08D0028F7D041
:101670000029F5D020680C3050E8002F22F4907239
:1016800040E80027002FF5D12068143050E8002FE3
:1016900022F0010240E80027002FF5D184F8423003
:1016A000256320680C3050E8002F00E006E022F0AF
:1016B000100240E80023002BF3D1CDE705062BD51F
:1016C000150629D594F841002128C9D1A068B0F5A4
:1016D000805F01D12069B0B1206A411C216221687C
:1016E00000784860E08C401E0004000CE084B7D114
:1016F0002068C16821F08001C1602068C16841F0A4
:101700004001C160F8BD206A0088C0F3080048604D
:10171000206A801C2062E5E74006F3D55006F1D52B
:10172000CA68204622F04002CA6084F8413000F0C6
:10173000F5F8F8BD6921000870B5040004D094F8EC
:101740004100002510B106E0012070BD84F8405032
:10175000204600F023F8242084F841002068C16866
:1017600021F40051C160204600F08EFD206801691F
:1017700021F4904101612068416921F02A01416111
:101780002068C16841F40051C1606564202084F87C
:10179000410084F842006563002070BDF0B587B059
:1017A000064614216846FEF7F8FD324F30680025E2
:1017B0003149022203230724B8421CD12E48143099
:1017C000066846F010060660006800F010000590FC
:1017D000086840F0020008600868694600F00200EE
:1017E0000590C0208DE82500CDE903342348FFF79C
:1017F00027F807B0F0BD224FB842FAD11E4810308A
:10180000076847F480270760006800F4802005908F
:10181000086840F0040008600868694600F00400A9
:1018200005904FF440608DE82500CDE9033415485C
:10183000FFF706F8154C144820604FF00060C4E92B
:1018400001054014C4E903506561A561E5612562A5
:1018500020466562FEF778FF08B1FEF748FEF463A4
:10186000002211462720A663FFF75EF92720FFF725
:101870004DF9BEE70010014030380240000402403C
:101880000048004000080240286002407801002023
:1018900090F84230202B01D00220704721B11AB1BC
:1018A0000023036300F076BD0120704710B5006887
:1018B0001649884228D11648014602784B781549C6
:1018C00032B18B54521CD2B20270192A06D013E0E6
:1018D0000F2B11D10B70012101700DE0002202705D
:1018E00008780F2808D1087E18B1042801D00828EC
:1018F00002D1084800F05CF905490122BDE810401A
:10190000491C0548FFF7C4BF10BD00000048004057
:10191000000000203C000020300100207047FEE75E
:1019200070B586B014216846FEF737FD1E480024C6
:10193000016841F001010160016801F001010591B8
:10194000016841F002010160016801F002010591A6
:10195000016841F004010160016801F00401059192
:10196000016841F480710160016801F480710591A2
:10197000016841F08001016000680C4E00F08000B9
:101980004FF4E0550590012229463046FFF758F8FC
:1019900001200095CDE90104694630460394FEF725
:1019A0004FFF06B070BD000030380240001C0240FE
:1019B00010B592B000240F941C2168461094FEF7D5
:1019C000ECFC202107A8FEF7E8FC2C482A4901601E
:1019D000A721C0E9011444F61F61C0E90314446162
:1019E0008461FFF7A5FC08B172B6FEE70F940FA95A
:1019F00022481094FFF7AAFB08B172B6FEE76020F8
:101A0000CDE90004029403940494059400226946ED
:101A10001A480694FFF726FC08B172B6FEE70422C6
:101A200069461648FFF71EFC08B172B6FEE70822A9
:101A300069461248FFF716FC08B172B6FEE70C22A1
:101A400069460E48FFF70EFC08B172B6FEE7079430
:101A5000089409944FF400500A94CDE90B4007A96B
:101A600006480E94FFF748FB08B172B6FEE703483C
:101A7000FFF7B4FB12B010BD000001405800002079
:101A800010B592B000240F941C2168461094FEF704
:101A900084FC202107A8FEF780FC2C482A4901601D
:101AA000A721C0E9011444F61F61C0E90314446191
:101AB0008461FFF73DFC08B172B6FEE70F940FA9F1
:101AC00022481094FFF742FB08B172B6FEE760208F
:101AD000CDE900040294039404940594002269461D
:101AE0001A480694FFF7BEFB08B172B6FEE704225F
:101AF00069461648FFF7B6FB08B172B6FEE7082242
:101B000069461248FFF7AEFB08B172B6FEE70C2239
:101B100069460E48FFF7A6FB08B172B6FEE70794C8
:101B2000089409944FF400500A94CDE90B4007A99A
:101B300006480E94FFF7E0FA08B172B6FEE70348D4
:101B4000FFF74CFB12B010BD00040140A0000020C4
:101B5000FEE7FEE770470000411E0F2905D8044943
:101B600001EB400030F8020C70474FF48060704782
:101B70001800002010B5FEF769FF074C24216060B3
:101B80000648FEF7E8FB002020700122611CBDE83A
:101B900010400348FFF77CBE000000201800002022
:101BA00030010020014890F8220070471800002002
:101BB00010B5B0F80110C1F30A024B490A808278CF
:101BC000C378D20842EA4312C2F30A024A80C278BA
:101BD0000379920942EA8302437942EA8322C2F3FB
:101BE0000A028A8042798379520842EAC312C2F318
:101BF0000A02CA808279C379120942EA0312C2F347
:101C00000A020A81C279037AD20942EA4302437A7C
:101C100042EA4322C2F30A024A81427A837A920854
:101C200042EA8312C2F30A028A81827AC37A520993
:101C300042EAC302CA818289C2F30A020A82427B53
:101C4000837BD20842EA4312C2F30A024A82827BB1
:101C5000C37B920942EA8302037C42EA8322C2F3F5
:101C60000A028A82027C437C520842EAC312C2F30F
:101C70000A02CA82427C1209837C42EA0312C2F33E
:101C80000A020A83827CC37CD20942EA4302037DB2
:101C900042EA4322C2F30A024A83027D437D92084C
:101CA00042EA8312C2F30A028A83427D837D52098B
:101CB00042EAC302CA83C27DC2F3800281F82120B6
:101CC000C07DC0F3C00081F8200000B94AB10020F7
:101CD00081F82200002803D0FEF7B8FE03494860CF
:101CE00010BD0120F4E700001800002000000020D3
:101CF00010B5FEF7ABFE05494968401A322803D9F2
:101D00000349002081F8220010BD000000000020DF
:101D1000180000207047000010B5234886B000244A
:101D2000016841F0100101600068142100F010000A
:101D300005906846FEF731FB4FF4D4400090022036
:101D4000CDE901040320039001200490694617485F
:101D5000FEF776FD16480068416C41F4004141648D
:101D600000211348FFF732FB04211148FFF72EFB37
:101D700008210F48FFF72AFB0C210D48FFF726FB2F
:101D800040F2DC531946002000F04CF819460420BC
:101D900000F048F81946082000F044F819460C20D5
:101DA00000F040F806B010BD30380240001002408C
:101DB000580000204FF4FA7340F6C412994201D241
:101DC000194602E0914200D91146022802D10420AE
:101DD00000F028B870470000114B5A42994201DACE
:101DE000194602E0914200DD1146012810D0032877
:101DF00010D0042813D10C2071B14FF47A7311FB69
:101E000003F191FBF2F101F2DC5189B200F00AB862
:101E10000020F1E70820EFE740F2DC51F6E77047D9
:101E200018FCFFFF49F64042914200D91146074A8B
:101E3000126828B1042805D0082805D0116470471D
:101E40005163704791637047D16370475800002019
:101E5000FEF702BE30B593B030216846FEF79DFA1A
:101E600014210CA8FEF799FA1D480025016841F0DD
:101E700080510160006800F080501190194801689D
:101E800041F4804101600068022400F48040119018
:101E90000120039010200490009406940820CDE9BE
:101EA0000750A820CDE9090404200B906846FEF7EE
:101EB00059FF08B172B6FEE70CA90F2081E8310086
:101EC0004FF4A0500F904FF48050109005210CA8B3
:101ED000FEF75CFE002801D072B6FEE713B030BDFD
:101EE00040380240007000400248016841F470012F
:101EF0000160704788ED00E0F0B50268274B284D7F
:101F0000284E294F294C4FF0804C984209D060450B
:101F100007D0A84205D0B04203D0B84201D0A042B9
:101F200004D122F0700E4A6842EA0E0298421BD099
:101F3000604519D0A84217D0B04215D0B84213D08E
:101F4000A04211D01A4DA8420ED01A4DA8420BD073
:101F5000194DA84208D0194DA84205D0184DA842E5
:101F600002D0184DA84203D122F44075CA682A4312
:101F70004D6922F080022A438D68C5620D68856232
:101F8000984201D0A04201D109690163016841F082
:101F900004010160012141610260F0BD00000140C7
:101FA0000004004000080040000C00400004014014
:101FB000004001400044014000480140001800403A
:101FC000001C00400020004010B501F01F0301215B
:101FD000046A99408C430462016A9A401143016289
:101FE00010BD0000F0B5036A026A22F0010202622D
:101FF00042688469124E24F073050C682C4323F068
:1020000002058B682B430D4DA84201D0B04205D18B
:1020100023F00807CB683B4323F00403A84201D018
:10202000B04205D14D6922F4407215438A692A43B2
:1020300042608461496841630362F0BD0000014071
:1020400000040140F0B5026A036A23F01003036242
:10205000436884690D6824F4E64444EA05248D68E5
:1020600022F0200242EA05120F4D104EA84201D084
:10207000B04206D1CF6822F0800242EA071222F075
:102080004002A84201D0B04207D14D6923F4406319
:1020900043EA85038D6943EA8503436084614968A7
:1020A00081630262F0BD00000000014000040140B5
:1020B000F0B5026A036A23F4807303624368C4695B
:1020C00022F4007224F073050C68124E2C438D68C4
:1020D00042EA05220E4DA84201D0B04206D1CF6897
:1020E00022F4006242EA072222F48062A84201D070
:1020F000B04207D14D6923F4405343EA05138D697B
:1021000043EA05134360C4614968C1630262F0BDDC
:10211000000001400004014030B5046A026A22F464
:10212000805202624268C3690D6823F4E64343EAC1
:1021300005238D6824F4005444EA0534084DA84270
:1021400002D0084DA84204D14D6922F4804242EAEF
:1021500085124260C36149680164046230BD0000B9
:10216000000001400004014010B5806B0021C185D2
:10217000FFF792F910BD01680C3151E8002F22F4ED
:10218000907241E80023002BF5D10168143151E829
:10219000002F22F0010241E80023002BF5D1016B52
:1021A000012909D101680C3151E8002F22F01002F9
:1021B00041E80023002BF5D1202180F842100021B6
:1021C0000163704708B590F84210222901D002201F
:1021D00008BD82684FF480539A4201D1016921B150
:1021E000816A9A421BD04AB10AE00268816A526849
:1021F000C2F308020A80816A891C08E0026972B190
:102200000268526802F07F020A70816A491C81628A
:10221000C18D491E0904090CC18503D01BE0026869
:102220005268F1E70168CA6822F02002CA600168BA
:10223000CA6822F48072CA6001684A6922F0010209
:102240004A61202180F8421000214163026B012A7B
:1022500003D0FFF72BFB002008BD016301680C31A0
:1022600051E8002F22F0100241E80023002BF5D1A5
:1022700001680A68D20602D50A6849680091818D12
:10228000FFF708F9E7E7000070B504460068016948
:10229000E26821F44051114301612169A068E269BB
:1022A00008436169114308432168CA6849F20C6315
:1022B0009A430243CA6020684169A26921F44071CF
:1022C0001143416131492068884202D03049884237
:1022D00002D1FEF705FD01E0FEF7F2FCE269002302
:1022E000192164253226B2F5004F626828D0A0FB80
:1022F0000101930F9200FDF7B7FF0146B0FBF5F027
:102300006FF01802504301EB800006EB0010B0FBA9
:10231000F5F000F0F002B1FBF5F002EB0012B1FBBA
:10232000F5F06FF01803584301EB800006EB001046
:10233000B0FBF5F000F00F0021681044886070BD1C
:10234000A0FB010192185B41FDF78EFF0146B0FB37
:10235000F5F00201B1FBF5F06FF01803584301EB03
:10236000800006EBC000B0FBF5F000F0F80002EBD7
:102370004002B1FBF5F0584301EB800006EBC000D2
:10238000B0FBF5F000F00700D6E7000000100140B8
:102390000014014081628285C285002141642221AE
:1023A00080F84210016921B10168CA6842F4807264
:1023B000CA6001684A6942F001024A610068C16866
:1023C00041F02001C1600020704700000148FFF784
:1023D00073B8000030010020FEE70907090E00284D
:1023E00004DB00F1E02080F80014704700F00F00DB
:1023F00000F1E02080F8141D7047000008B5FEF7DA
:1024000033FBFFF727FDFFF78BFAA848002401688C
:1024100041F4001101600068224600F400100090B1
:1024200021460C20FEF780FB0C20FEF76FFBFFF728
:10243000BFFAFFF725FB9F489D490C2501604FF42B
:10244000E131C0E90114C460C0E904458461C4619C
:10245000FFF772F908B172B6FEE796489649483020
:102460004FF4805701609549C0E901177900C160B8
:10247000C9100161C0E90554C461FFF75DF908B1F5
:1024800072B6FEE7FFF776FBFFF746FC0126DFF8A2
:102490003092DFF830B205E000264FF48061484604
:1024A000FEF7C6FAFFF77EFB40B100224FF48051E1
:1024B0004C464846FEF7C4FA012206E00122110309
:1024C0004C464846FEF7BCFA00224FF40061204615
:1024D000FEF7B6FAFFF70CFCFFF764FB00287DD08F
:1024E0000120FFF739FB0FFA80FA0220FFF734FBD7
:1024F00007B20320FFF730FB04B20920FFF72CFBE3
:102500000FFA80F80520FFF727FB4FF47A7103B22A
:10251000884552DAA7F5806738B2002500F131020C
:1025200040F2DC58632A13D332280A4610FB02F229
:1025300002DB4FF4297001E04FF4357092FBF0F0AC
:1025400005B28D4201DD0D4602E05D4500DA5D46D3
:10255000322015FB00F13F2291FBF2F091FBF2F7E4
:102560001E3001B20120FFF737FC1E3529B20320CF
:10257000FFF732FC1E3739B20420FFF72DFCA4F51B
:10258000806420B200F11D013B2914D34FF47A710D
:1025900010FB01F14FF4297091FBF0F000F2DC50D8
:1025A0001FFA80F840F6C410804503D84FF4FA7043
:1025B000804500D28046414663E00020A7F5806751
:1025C0003AB202F1310504468046632D0FD3322A18
:1025D0004FF47A7012FB00F204DB00E05CE04FF491
:1025E000297001E04FF4357092FBF0F000B2AAF5CB
:1025F000806215B2002205F13107632F0DD3322D11
:102600004FF47A7215FB02F502DB4FF4297201E0F8
:102610004FF4357295FBF2F212B2322512FB05F738
:102620003F2597FBF5F52DB28B4201DA144600E009
:10263000A846884201DD084602E0584500DA5846BF
:102640008C4201DD0C4602E05C4500DA5C468845C0
:1026500001DD884602E0D84500DAD8461E3001B2D6
:102660000120FFF7B9FB1E3421B20320FFF7B4FBB2
:1026700008F11E080FFA88F10420FFF7ADFB40F2C5
:10268000DC510220FFF796FB0A20FEF7C7F8761C04
:10269000322EFFF400AFFFE61E210120FFF79CFB66
:1026A0001E210320FFF798FB1E21E5E7303802408A
:1026B00000100140E800002000480040A086010012
:1026C000001C024018FCFFFF4FF04070E1EE100AC2
:1026D00070470006101600061016000000000000EB
:1026E00000000102030406070809000000000102BF
:1026F0000304000014270008000000201800000058
:10270000C40100082C270008180000202008000041
:10271000E0010008000000000000000001000000CF
:0C27200010000000000000000024F40085
:040000050800018965
:00000001FF
